{
  "contractName": "Place",
  "abi": [
    {
      "constant": false,
      "inputs": [
        {
          "name": "x",
          "type": "uint256"
        },
        {
          "name": "y",
          "type": "uint256"
        },
        {
          "name": "color",
          "type": "uint256"
        }
      ],
      "name": "set",
      "outputs": [],
      "payable": false,
      "stateMutability": "nonpayable",
      "type": "function"
    },
    {
      "constant": true,
      "inputs": [],
      "name": "getAllColors",
      "outputs": [
        {
          "name": "",
          "type": "uint256[100][100]"
        }
      ],
      "payable": false,
      "stateMutability": "view",
      "type": "function"
    },
    {
      "constant": true,
      "inputs": [
        {
          "name": "x",
          "type": "uint256"
        },
        {
          "name": "y",
          "type": "uint256"
        }
      ],
      "name": "getColor",
      "outputs": [
        {
          "name": "",
          "type": "uint256"
        }
      ],
      "payable": false,
      "stateMutability": "view",
      "type": "function"
    }
  ],
  "bytecode": "0x608060405234801561001057600080fd5b506102d0806100206000396000f300608060405260043610610057576000357c0100000000000000000000000000000000000000000000000000000000900463ffffffff16806335de7c621461005c57806343b0e8df146100d2578063eded5d9e14610113575b600080fd5b34801561006857600080fd5b5061007161015e565b604051808260646000925b818410156100c25782846020020151606460200280838360005b838110156100b1578082015181840152602081019050610096565b50505050905001926001019261007c565b9250505091505060405180910390f35b3480156100de57600080fd5b506101116004803603810190808035906020019092919080359060200190929190803590602001909291905050506101e1565b005b34801561011f57600080fd5b506101486004803603810190808035906020019092919080359060200190929190505050610225565b6040518082815260200191505060405180910390f35b610166610250565b6000606480602002604051908101604052809291906000905b828210156101d8578382606402016064806020026040519081016040528092919082606480156101c4576020028201915b8154815260200190600101908083116101b0575b50505050508152602001906001019061017f565b50505050905090565b600881111515156101ee57fe5b6000811115156101fa57fe5b8060008460648110151561020a57fe5b606402018360648110151561021b57fe5b0181905550505050565b6000808360648110151561023557fe5b606402018260648110151561024657fe5b0154905092915050565b6204e200604051908101604052806064905b61026a610280565b8152602001906001900390816102625790505090565b610c80604051908101604052806064906020820280388339808201915050905050905600a165627a7a72305820dbc9a28c53df06930ba5912654136a04afec4c0018ca5f5963927097d06fb9e60029",
  "source": "pragma solidity ^0.4.18;\n\ncontract Place {\n    uint[100][100] boardStatus;\n\n    string[8] colors;\n\n    function set(uint x, uint y, uint color) public {\n        assert(color <= colors.length);\n        assert(color > 0);\n        boardStatus[x][y] = color;\n    }\n\n    function getAllColors() public view returns (uint[100][100]) {\n        return boardStatus;\n    }\n\n    function getColor(uint x, uint y) public view returns (uint) {\n        return boardStatus[x][y];\n    }\n}\n",
  "sourcePath": "/Users/brianfitzgerald/place-ethereum/contracts/Place.sol",
  "compiler": {
    "name": "solc",
    "version": "0.4.23+commit.124ca40d.Emscripten.clang"
  },
  "schemaVersion": "2.0.0",
  "updatedAt": "2018-05-20T20:13:59.251Z"
}