{
  "contractName": "Place",
  "abi": [
    {
      "constant": false,
      "inputs": [
        {
          "name": "newOwner",
          "type": "address"
        },
        {
          "name": "zoneID",
          "type": "uint256"
        }
      ],
      "name": "claimBoard",
      "outputs": [],
      "payable": false,
      "stateMutability": "nonpayable",
      "type": "function"
    },
    {
      "constant": true,
      "inputs": [],
      "name": "getZones",
      "outputs": [
        {
          "name": "",
          "type": "uint256[16]"
        },
        {
          "name": "",
          "type": "uint256[16][8]"
        },
        {
          "name": "",
          "type": "address[16]"
        }
      ],
      "payable": false,
      "stateMutability": "view",
      "type": "function"
    }
  ],
  "bytecode": "0x608060405234801561001057600080fd5b50610406806100206000396000f30060806040526004361061004c576000357c0100000000000000000000000000000000000000000000000000000000900463ffffffff168063248de35514610051578063a1eb248f1461009e575b600080fd5b34801561005d57600080fd5b5061009c600480360381019080803573ffffffffffffffffffffffffffffffffffffffff16906020019092919080359060200190929190505050610172565b005b3480156100aa57600080fd5b506100b36101cb565b6040518084601060200280838360005b838110156100de5780820151818401526020810190506100c3565b505050509050018360086000925b818410156101325782846020020151601060200280838360005b83811015610121578082015181840152602081019050610106565b5050505090500192600101926100ec565b9250505082601060200280838360005b8381101561015d578082015181840152602081019050610142565b50505050905001935050505060405180910390f35b8160008260108110151561018257fe5b600a020160090160006101000a81548173ffffffffffffffffffffffffffffffffffffffff021916908373ffffffffffffffffffffffffffffffffffffffff1602179055505050565b6101d361033f565b6101db610363565b6101e3610392565b6101eb61033f565b6101f3610363565b6101fb610392565b600080600091505b601082101561032c5760008260108110151561021b57fe5b600a020160000154858360108110151561023157fe5b602002018181525050600090505b60108110156102a35760008260108110151561025757fe5b600a02016001018160088110151561026b57fe5b0154848360088110151561027b57fe5b60200201518260108110151561028d57fe5b602002018181525050808060010191505061023f565b6000826010811015156102b257fe5b600a020160090160009054906101000a900473ffffffffffffffffffffffffffffffffffffffff1683836010811015156102e857fe5b602002019073ffffffffffffffffffffffffffffffffffffffff16908173ffffffffffffffffffffffffffffffffffffffff16815250508180600101925050610203565b8484849750975097505050505050909192565b61020060405190810160405280601090602082028038833980820191505090505090565b611000604051908101604052806008905b61037c6103b6565b8152602001906001900390816103745790505090565b61020060405190810160405280601090602082028038833980820191505090505090565b610200604051908101604052806010906020820280388339808201915050905050905600a165627a7a7230582006e927c85efe2fbfd037844b71d2132e8fa92391b044fcfeb077ccbe8be9da6b0029",
  "source": "pragma solidity ^0.4.18;\n\ncontract Place {\n\n    struct Zone {\n        uint id;\n        uint[8] connections;\n        address currentOwner;\n    }\n\n    Zone[16] boardStatus;\n\n    string[] players;\n\n    function claimBoard(address newOwner, uint zoneID) public {\n        boardStatus[zoneID].currentOwner = newOwner;\n    }\n\n    function getZones() public view returns (uint[16], uint[16][8], address[16]) {\n        uint[16] memory ids;\n        uint[16][8] memory connections;\n        address[16] memory owners;\n        for (uint i = 0; i < 16; i++) {\n            ids[i] = boardStatus[i].id;\n            for (uint j = 0; j < 16; j++) {\n                connections[i][j] = boardStatus[i].connections[j];\n            }\n            owners[i] = boardStatus[i].currentOwner;\n        }\n        return (ids, connections, owners);\n    }\n\n\n}\n",
  "sourcePath": "/Users/brianfitzgerald/place-ethereum/contracts/Place.sol",
  "compiler": {
    "name": "solc",
    "version": "0.4.23+commit.124ca40d.Emscripten.clang"
  },
  "schemaVersion": "2.0.0",
  "updatedAt": "2018-05-20T19:05:48.838Z"
}