{
  "contractName": "Zones",
  "abi": [
    {
      "constant": false,
      "inputs": [
        {
          "name": "newOwner",
          "type": "address"
        },
        {
          "name": "zoneID",
          "type": "uint256"
        }
      ],
      "name": "claimBoard",
      "outputs": [],
      "payable": false,
      "stateMutability": "nonpayable",
      "type": "function"
    },
    {
      "constant": false,
      "inputs": [
        {
          "name": "connections",
          "type": "uint16[3]"
        },
        {
          "name": "currentOwner",
          "type": "address"
        },
        {
          "name": "id",
          "type": "uint256"
        }
      ],
      "name": "addZone",
      "outputs": [],
      "payable": false,
      "stateMutability": "nonpayable",
      "type": "function"
    },
    {
      "constant": true,
      "inputs": [],
      "name": "getZones",
      "outputs": [
        {
          "name": "",
          "type": "uint256[16]"
        },
        {
          "name": "",
          "type": "uint256[16][8]"
        },
        {
          "name": "",
          "type": "address[16]"
        }
      ],
      "payable": false,
      "stateMutability": "view",
      "type": "function"
    }
  ],
  "bytecode": "0x608060405234801561001057600080fd5b506106dc806100206000396000f300608060405260043610610057576000357c0100000000000000000000000000000000000000000000000000000000900463ffffffff168063248de3551461005c578063a1eb248f146100a9578063a4abda4d1461017d575b600080fd5b34801561006857600080fd5b506100a7600480360381019080803573ffffffffffffffffffffffffffffffffffffffff169060200190929190803590602001909291905050506101f9565b005b3480156100b557600080fd5b506100be61025c565b6040518084601060200280838360005b838110156100e95780820151818401526020810190506100ce565b505050509050018360086000925b8184101561013d5782846020020151601060200280838360005b8381101561012c578082015181840152602081019050610111565b5050505090500192600101926100f7565b9250505082601060200280838360005b8381101561016857808201518184015260208101905061014d565b50505050905001935050505060405180910390f35b34801561018957600080fd5b506101f76004803603810190808060600190600380602002604051908101604052809291908260036020028082843782019150505050509192919290803573ffffffffffffffffffffffffffffffffffffffff1690602001909291908035906020019092919050505061040a565b005b8160008281548110151561020957fe5b906000526020600020906003020160020160006101000a81548173ffffffffffffffffffffffffffffffffffffffff021916908373ffffffffffffffffffffffffffffffffffffffff1602179055505050565b6102646104e6565b61026c61050a565b610274610539565b61027c6104e6565b61028461050a565b61028c610539565b600080600091505b60108210156103f7576000828154811015156102ac57fe5b90600052602060002090600302016000015485836010811015156102cc57fe5b602002018181525050600090505b6003811015610364576000828154811015156102f257fe5b90600052602060002090600302016001018160038110151561031057fe5b601091828204019190066002029054906101000a900461ffff1661ffff16848360088110151561033c57fe5b60200201518260108110151561034e57fe5b60200201818152505080806001019150506102da565b60008281548110151561037357fe5b906000526020600020906003020160020160009054906101000a900473ffffffffffffffffffffffffffffffffffffffff1683836010811015156103b357fe5b602002019073ffffffffffffffffffffffffffffffffffffffff16908173ffffffffffffffffffffffffffffffffffffffff16815250508180600101925050610294565b8484849750975097505050505050909192565b61041261055d565b6060604051908101604052808381526020018581526020018473ffffffffffffffffffffffffffffffffffffffff168152509050600081908060018154018082558091505090600182039060005260206000209060030201600090919290919091506000820151816000015560208201518160010190600361049592919061059b565b5060408201518160020160006101000a81548173ffffffffffffffffffffffffffffffffffffffff021916908373ffffffffffffffffffffffffffffffffffffffff16021790555050505050505050565b61020060405190810160405280601090602082028038833980820191505090505090565b611000604051908101604052806008905b610523610638565b81526020019060019003908161051b5790505090565b61020060405190810160405280601090602082028038833980820191505090505090565b60a0604051908101604052806000815260200161057861065c565b8152602001600073ffffffffffffffffffffffffffffffffffffffff1681525090565b826003600f016010900481019282156106275791602002820160005b838211156105f757835183826101000a81548161ffff021916908361ffff16021790555092602001926002016020816001010492830192600103026105b7565b80156106255782816101000a81549061ffff02191690556002016020816001010492830192600103026105f7565b505b509050610634919061067f565b5090565b61020060405190810160405280601090602082028038833980820191505090505090565b606060405190810160405280600390602082028038833980820191505090505090565b6106ad91905b808211156106a957600081816101000a81549061ffff021916905550600101610685565b5090565b905600a165627a7a72305820d05ee7ead0f340b48f49c2c1d8c174137ce6e208e5572989a74ed9de95b601f00029",
  "source": "pragma solidity ^0.4.18;\n\ncontract Zones {\n\n    struct Zone {\n        uint id;\n        uint16[3] connections;\n        address currentOwner;\n    }\n\n    Zone[] boardStatus;\n\n    string[] players;\n\n    function claimBoard(address newOwner, uint zoneID) public {\n        boardStatus[zoneID].currentOwner = newOwner;\n    }\n\n    function addZone(uint16[3] connections, address currentOwner, uint id) public {\n        Zone memory newZone = Zone({currentOwner: currentOwner, connections: connections, id: id });\n        boardStatus.push(newZone);\n    }\n\n    function getZones() public view returns (uint[16], uint[16][8], address[16]) {\n        uint[16] memory ids;\n        uint[16][8] memory connections;\n        address[16] memory owners;\n        for (uint i = 0; i < 16; i++) {\n            ids[i] = boardStatus[i].id;\n            for (uint j = 0; j < 3; j++) {\n                connections[i][j] = boardStatus[i].connections[j];\n            }\n            owners[i] = boardStatus[i].currentOwner;\n        }\n        return (ids, connections, owners);\n    }\n\n\n}\n",
  "sourcePath": "/Users/brianfitzgerald/place-ethereum/contracts/Zones.sol",
  "compiler": {
    "name": "solc",
    "version": "0.4.23+commit.124ca40d.Emscripten.clang"
  },
  "schemaVersion": "2.0.0",
  "updatedAt": "2018-05-20T20:13:59.254Z"
}